:100000000C945D000C9485000C9485000C94850084
:100010000C9485000C9485000C9485000C9485004C
:100020000C9485000C9485000C9485000C9485003C
:100030000C9485000C9485000C9485000C9485002C
:100040000C943D050C9485000C9485000C9485005F
:100050000C9485000C9485000C9485000C9485000C
:100060000C9485000C94850000000008000201003B
:100070000003040700000000000000000000000072
:10008000250028002B0000000000240027002A0083
:10009000040404040404040402020202020203032E
:1000A0000303030301020408102040800102040836
:1000B00010200102040810200F0811241FBECFEFEA
:1000C000D8E0DEBFCDBF21E0A8E3B1E001C01D92C2
:1000D000AF38B207E1F711E0A0E0B1E0E6E8F6E101
:1000E00002C005900D92A833B107D9F710E0CDE515
:1000F000D0E004C02197FE010E944909CC35D10708
:10010000C9F70E9487050C94410B0C94000090E005
:10011000FC01EC55FF4F249180579F4FFC018491C7
:10012000882399F090E0880F991FFC01EA57FF4F50
:10013000A591B491FC01E458FF4F859194918FB73C
:10014000F894EC91E22BEC938FBF089590E0FC01C2
:10015000E859FF4F2491FC01EC55FF4F3491FC010D
:10016000E057FF4FE491EE23C9F0222339F023300A
:1001700001F1A8F4213019F1223029F1F0E0EE0F5D
:10018000FF1FE458FF4FA591B4918FB7F894EC91FD
:10019000611126C030953E233C938FBF08952730D0
:1001A000A9F02830C9F0243049F7809180008F7D74
:1001B00003C0809180008F7780938000DFCF84B56B
:1001C0008F7784BDDBCF84B58F7DFBCF8091B0006E
:1001D0008F778093B000D2CF8091B0008F7DF9CF20
:1001E0003E2BDACF3FB7F8948091450190914601BC
:1001F000A0914701B091480126B5A89B05C02F3FAB
:1002000019F00196A11DB11D3FBFBA2FA92F982F3C
:100210008827BC01CD01620F711D811D911D42E037
:10022000660F771F881F991F4A95D1F708958F92FF
:100230009F92AF92BF92CF92DF92EF92FF926B01AB
:100240007C010E94F2004B015C01C114D104E10465
:10025000F104B9F00E94F200681979098A099B0932
:10026000683E73408105910580F321E0C21AD108F0
:10027000E108F10888EE880E83E0981EA11CB11CED
:10028000E4CFFF90EF90DF90CF90BF90AF909F9022
:100290008F9008950895AF92BF92CF92DF92EF9220
:1002A000FF920F931F93CF93DF936C017B018B0120
:1002B000040F151FEB015E01AE18BF08C017D10770
:1002C00059F06991D601ED91FC910190F081E02DFA
:1002D000C6010995892B79F7C501DF91CF911F914F
:1002E0000F91FF90EF90DF90CF90BF90AF90089567
:1002F000CF93DF93EC011B821C821D8260E088811A
:100300000E94A6006C8189810E94A6006D818A816D
:10031000DF91CF910C94A600CF92DF92EF920F93D2
:10032000CF93DF9300D000D000D0CDB7DEB72983C4
:100330003A834B835C836D837E8321E6C22E21E06A
:10034000D22EFC0122813381F601338322832AE0FD
:1003500031E031832083FC012481F6012483FC01F8
:100360002581F6012583FC012681F601268328E0FC
:10037000FC013796A8E6B1E001900D922A95E1F7CD
:10038000FC012785F6012787FC012089F601208BD7
:10039000FC012189F601218BFC012289F601228BC7
:1003A000FC012389F601238BFC0184899589A689A8
:1003B000B789F601848B958BA68BB78B86E0FE01FF
:1003C0003196A9E7B1E001900D928A95E1F7F60127
:1003D000068FE78E11A210A289E791E00E947801B2
:1003E00081E0F601848F61E0818D26960FB6F89446
:1003F000DEBF0FBECDBFDF91CF910F91EF90DF90A9
:10040000CF900C94A60090E080E00895FC018081DC
:100410009181009711F00C94EB0908950F931F93AD
:10042000CF93DF93EC0188819981009759F02A815D
:100430003B812617370730F081E0DF91CF911F9184
:100440000F9108958B016F5F7F4F0E94740A009790
:1004500059F0998388831B830A832C813D81232B48
:1004600059F7FC011082E8CF80E0E7CFEF92FF92CE
:100470000F931F93CF93DF93FB01E080F180E11492
:10048000F10441F480E0DF91CF911F910F91FF9033
:10049000EF9008950481158101151105B1F0EC016B
:1004A0008C819D81080F191FB801CE010E940E0298
:1004B000882341F3288139818C819D81B701820F86
:1004C000931F0E943A0B1D830C8381E0DCCFEF92D7
:1004D000FF920F931F93CF93DF93EC017B018A016F
:1004E000BA010E940E0228813981811114C02115A0
:1004F000310519F0C9010E94EB09198218821D8289
:100500001C821B821A82CE01DF91CF911F910F9125
:10051000FF90EF9008951D830C83B701C9010E94DD
:100520003A0BF1CFEF92FF920F931F93CF93DF938C
:10053000CDB7DEB762970FB6F894DEBF0FBECDBF62
:100540008C01CB01F8011182108213821282158274
:1005500014824AE09E012F5F3F4F7901B9010E944A
:10056000B508F70101900020E9F73197AF014E1966
:100570005F09B701C8010E94670262960FB6F8943E
:10058000DEBF0FBECDBFDF91CF911F910F91FF90C6
:10059000EF900895FB0101900020E9F73197AF013A
:1005A000461B570B0C946702EF92FF920F931F9319
:1005B000CF93DF9300D000D000D0CDB7DEB78C0151
:1005C000FC011182108213821282158214826CE166
:1005D00071E00E94CA026091890170918A01CE0186
:1005E00001960E949202F80180819181009709F49E
:1005F0007BC069817A816115710509F473C04281FC
:1006000053812D813E814217530708F46BC00E942D
:100610003A0B8D819E81F801958384831E821D8211
:10062000CE0101960E9406026091870170918801B7
:10063000CE0101960E949202BE016F5F7F4FC801FA
:100640000E943602CE0101960E940602F801E48063
:10065000F580FFEFEF1AFF0AB701C8010E940E02F2
:10066000882371F0F801208131818481958166E3CE
:1006700071E0820F931F0E943A0BF801F582E48229
:100680006091850170918601CE0101960E949202CF
:10069000BE016F5F7F4FC8010E943602CE010196F6
:1006A0000E9406026091830170918401CE0101963F
:1006B0000E949202BE016F5F7F4FC8010E94360206
:1006C000CE0101960E940602C80126960FB6F89444
:1006D000DEBF0FBECDBFDF91CF911F910F91FF9075
:1006E000EF9008950E94EB0989819A81F801918326
:1006F00080838B819C81938382838D819E8195836E
:1007000084831A8219821C821B8288CFCF93DF9345
:10071000EC0160E08E810E94A60061E08E810E9463
:10072000A60060E08E810E94A6008BE891E0019710
:10073000F1F7DF91CF910895CF92DF92EF92FF9280
:100740000F931F93CF93DF936C017C0187E0E80E3A
:10075000F11CD0E0C0E0062F10E0B8010C2E02C062
:10076000759567950A94E2F76170F70181917F01B1
:100770000E94A6002196C430D10579F7C601DF9109
:10078000CF911F910F91FF90EF90DF90CF900C943D
:100790008603CF92DF92EF92FF920F931F93CF9336
:1007A000DF93EC01F62E642F8C810E94A6008D81D0
:1007B0008F3F19F060E00E94A6000F2D10E08F859A
:1007C00084FF25C06E0187E0C80ED11CF12CE12CFE
:1007D000B8010E2C02C0759567950A94E2F7617016
:1007E000F60181916F010E94A600FFEFEF1AFF0A48
:1007F00088E0E816F10461F7CE01DF91CF911F91F7
:100800000F91FF90EF90DF90CF900C948603B8018A
:1008100084E0759567958A95E1F7CE010E949C0367
:100820006F2DCE01DF91CF911F910F91FF90EF902F
:10083000DF90CF900C949C0341E00E94C90381E0BB
:1008400090E0089540E00C94C903CF93DF93823089
:1008500029F49091580198609093580180935C011D
:1008600010925D0180E480935E0180E180935F01DE
:1008700080E58093600180914D010E948700809106
:100880004E018F3F11F00E94870080914F010E941E
:100890008700C9E4D1E09E0129543140809158017C
:1008A00084FD0AC084E090E02196281739073CF4C3
:1008B0008E810E948700EFCF88E090E0F5CF8BE338
:1008C0009DE00197F1F760E080914D010E94A60044
:1008D00060E080914F010E94A60080914E018F3F01
:1008E00019F060E00E94A6006091580164FD41C0CB
:1008F00063E089E491E00E949C03CBE4D6E4CE015E
:100900000197F1F763E089E491E00E949C0321974D
:10091000F1F763E089E491E00E949C0383E592E0B3
:100920000197F1F762E089E491E00E949C036091F5
:100930005801606289E491E00E94220484E080937F
:1009400059016CE089E491E00E94220461E089E4AD
:1009500091E00E9422048BE39FE10197F1F782E08E
:1009600080935A0166E089E491E0DF91CF910C9485
:100970002204606289E491E00E9422048BE496E400
:100980000197F1F760915801606289E491E00E945B
:10099000220483E592E00197F1F7609158016062CB
:1009A00089E491E00E942204C2CF909174016917FA
:1009B00010F06FEF690FE62FF0E0EF59FE4F6489FA
:1009C000680F606881E691E00C942204EF92FF9238
:1009D0001F93CF93DF937C01EB01142F61E081E63D
:1009E00091E00E9422048BE39FE10197F1F760E020
:1009F00080E00E94D504F7014481558160817181B6
:100A000081E691E00E944B0161E080E00E94D50404
:100A10004C815D816881798181E691E00E944B0182
:100A2000D0E0C0E0E12EF12CEC16FD0671F061E0A3
:100A30008C2F0E94D504609171016E7F60937101CB
:100A4000686081E691E00E9422042196C530D105BC
:100A500059F761E0812F0E94D50460917101862FC2
:100A6000816080937101696081E691E0DF91CF91AF
:100A70001F91FF90EF900C9422041F920F920FB6DB
:100A80000F9211242F933F938F939F93AF93BF9314
:100A90008091410190914201A0914301B0914401A4
:100AA0003091400123E0230F2D3758F50196A11D09
:100AB000B11D209340018093410190934201A09386
:100AC0004301B09344018091450190914601A0916A
:100AD0004701B09148010196A11DB11D80934501C8
:100AE00090934601A0934701B0934801BF91AF9105
:100AF0009F918F913F912F910F900FBE0F901F905C
:100B0000189526E8230F0296A11DB11DD2CFCF93D1
:100B1000DF93CDB7DEB72C970FB6F894DEBF0FBECC
:100B2000CDBF789484B5826084BD84B5816084BD76
:100B300085B5826085BD85B5816085BD80916E007B
:100B4000816080936E0010928100809181008260AC
:100B500080938100809181008160809381008091E9
:100B600080008160809380008091B10084608093D8
:100B7000B1008091B00081608093B00080917A00D4
:100B8000846080937A0080917A00826080937A00FA
:100B900080917A00816080937A0080917A008068E9
:100BA00080937A001092C10038E5E32E32E0F32EF4
:100BB0004CE3642E712C50E0452E50E0552E65E03C
:100BC000C62ED12C79E0A72EB12CE3E08E2E912CED
:100BD0002CE3222E40E440937C0080917A008064D4
:100BE00080937A0080917A0086FDFCCF2091780076
:100BF00030917900213981E03807A0F4809181019A
:100C000090918201293C310508F0E0C02135310581
:100C100008F003C1009709F025C1909282018092EB
:100C2000810108C0293542E0340708F4C2C02132EE
:100C30003340E0F1809181019091820181309105F2
:100C400009F4E7C10CF0DAC1892B09F4DFC1CE0148
:100C500007960E94D4021A8219821C821B821E826D
:100C60001D824FE050E068E271E0CE0101960E94E3
:100C70006702432DBE01695F7F4FCE0101960E943E
:100C8000E604CE0101960E940602CE0107960E945C
:100C9000060268EC70E080E090E00E9417014114C9
:100CA000510409F497CF0E94000092CF80918301F4
:100CB0009091840120918501309186014AE0429F04
:100CC0008001439F100D1124800F911F20918701F7
:100CD00030918801229E8001239E100D1124080F5F
:100CE000191F2091890130918A012E9DC0012F9DED
:100CF000900D3E9D900D1124080F191F89E791E07A
:100D00000E94780181E080937C0161E0809179010B
:100D10000E94A60061E0809180010E94A60010164A
:100D200011060CF0F5C001501109CE0107960E9482
:100D3000D4021A8219821C821B821E821D824AE002
:100D400050E062E171E0CE0101960E94670241E14C
:100D5000BE01695F7F4FCE0101960E94E604CE017D
:100D600001960E940602CE0107960E940602C80163
:100D7000B7010E94210970938A0160938901B30130
:100D80000E94210970938801609387016AE070E0F6
:100D90000E942109709386016093850190938401DC
:100DA0008093830168EE73E080E090E00E94170179
:100DB000B6CF80918101909182018330910509F035
:100DC000A5C0109282011092810134CF813091052B
:100DD00009F480C07CF4892B09F02CCF8091830129
:100DE00090918401009709F073C0B0928401A092A1
:100DF000830120CF8230910509F479C0039709F06F
:100E000019CF8091890190918A01009709F07CC0E7
:100E1000D0928A01C09289010DCF8130910571F184
:100E20007CF4892B09F006CF809183019091840195
:100E300089309105E9F41092840110928301FACE71
:100E40008230910569F1039709F0F4CE8091890110
:100E500090918A0185309105A9F510928A0110922E
:100E60008901E8CE01979093820180938101E2CEBF
:100E700001969093840180938301DCCE809185015B
:100E8000909186018530910529F410928601109287
:100E90008501D0CE01969093860180938501CACEBC
:100EA00080918701909188018930910529F41092F1
:100EB000880110928701BECE01969093880180939D
:100EC0008701B8CE019690938A0180938901B2CEB2
:100ED0000197CFCF8091850190918601009729F4E9
:100EE000D0928601C0928501A5CE0197D4CF809182
:100EF000870190918801009729F4B0928801A0920F
:100F0000870198CE0197D9CF0197DDCF0196ABCF5E
:100F100060E0809180010E94A60089E791E00E9434
:100F2000780181E080937D0161E080917A010E94E7
:100F3000A60018861F821A8619861C861B866CE1FD
:100F400071E0CE0107960E94CA021A8219821C82A1
:100F50001B821E821D826DE171E0CE0101960E940E
:100F6000CA0241E1BE01695F7F4FCE0101960E9436
:100F7000E604CE0101960E940602CE0107960E9469
:100F8000060261E080917F010E94A60064EF71E09B
:100F900080E090E00E94170160E080917F010E9454
:100FA000A60064EF71E080E090E00E94170161E02C
:100FB00080917F010E94A60064EF71E080E090E0E4
:100FC0000E94170160E080917F010E94A60064EFFB
:100FD00071E080E090E00E94170161E080917F0164
:100FE0000E94A60068EE73E080E090E00E94170186
:100FF00060E080917F010E94A6001CCE82309105A6
:1010000059F0039709F023CE312C21CE94E0392EEC
:101010001ECE83E0382E1BCE3324339418CEBF92DD
:10102000CF92DF92EF92FF920F931F93CF93DF93B4
:10103000CDB7DEB768970FB6F894DEBF0FBECDBF51
:1010400009E411E0F801138212828AE0C82E81E0DF
:10105000D82ED182C08288E084838FEF858389E097
:10106000868384E0878385E0808786E0818787E0C8
:1010700082871386148615861686178681E00E945D
:10108000250482E00E9425048DE00E9487009AE3F7
:10109000E92E91E0F92E2DE0B22EF701B0828CE01E
:1010A0000E9487008CE0F70181838BE00E9487001B
:1010B0008BE0F7018283C7010E94780182E0809370
:1010C00039010E948700B09238018DE00E948700AC
:1010D000F801828193819C838B83DA82C982848127
:1010E0008D8385818E8386818F8388E0E0E5F1E0C2
:1010F000DE01189601900D928A95E1F7F801878537
:10110000888B8089898B81898A8B82898B8B838963
:101110008C8B84899589A689B7898D8B9E8BAF8BA3
:10112000B88FE09038010091390120913A01309157
:101130003B0140913C0150913D0160913E01709115
:101140003F01CE0101960E948C0168960FB6F8947B
:10115000DEBF0FBECDBFDF91CF911F910F91FF90EA
:10116000EF90DF90CF90BF900895BB274A3031F4C5
:10117000992322F4BDE2909581959F4F0C94C1086C
:10118000BB27FB015527AA27880F991FAA1FA41761
:1011900010F0A41B83955051B9F7A05DAA3308F055
:1011A000A95DA193009779F7B111B1931192CB0189
:1011B0000C94DA08DC01FC01672F71917723E1F7C9
:1011C000329704C07C916D9370836291AE17BF0714
:1011D000C8F308952F923F924F925F926F927F9241
:1011E0008F929F92AF92BF92CF92DF92EF92FF9237
:1011F0000F931F93CF93DF93CDB7DEB7CA1BDB0BE3
:101200000FB6F894DEBF0FBECDBF09942A88398887
:1012100048885F846E847D848C849B84AA84B9848E
:10122000C884DF80EE80FD800C811B81AA81B9819A
:10123000CE0FD11D0FB6F894DEBF0FBECDBFED01AE
:10124000089597FB072E16F4009407D077FD09D078
:101250000E94350907FC05D03EF4909581959F4F7B
:101260000895709561957F4F0895AA1BBB1B51E1AE
:1012700007C0AA1FBB1FA617B70710F0A61BB70B06
:10128000881F991F5A95A9F780959095BC01CD01AB
:101290000895EE0FFF1F0590F491E02D09940F9330
:1012A0001F93CF93DF938230910510F482E090E09A
:1012B000E0918D01F0918E0130E020E0B0E0A0E0FF
:1012C000309799F42115310509F44AC0281B390BD0
:1012D00024303105D8F58A819B816115710589F12A
:1012E000FB0193838283FE0111C040815181028101
:1012F000138148175907E0F04817590799F41097D8
:1013000061F012960C93129713961C933296CF01AC
:10131000DF91CF911F910F91089500938D0110934C
:101320008E01F4CF2115310551F04217530738F0E3
:10133000A901DB019A01BD01DF01F801C1CFEF0175
:10134000F9CF90938E0180938D01CDCFFE01E20FF6
:10135000F31F819391932250310939832883D7CF8A
:1013600020918B0130918C01232B41F420910201BB
:101370003091030130938C0120938B012091000167
:10138000309101012115310541F42DB73EB740914F
:10139000040150910501241B350BE0918B01F09164
:1013A0008C01E217F307A0F42E1B3F0B2817390717
:1013B00078F0AC014E5F5F4F2417350748F04E0FB1
:1013C0005F1F50938C0140938B01819391939FCF2A
:1013D000F0E0E0E09CCFCF93DF930097E9F0FC01D1
:1013E000329713821282A0918D01B0918E01ED018E
:1013F00030E020E01097A1F420813181820F931F0B
:1014000020918B0130918C012817390709F061C0B8
:10141000F0938C01E0938B01DF91CF910895EA0165
:10142000CE17DF07E8F54A815B819E014115510522
:10143000B1F7E901FB83EA8349915991C40FD51FA4
:10144000EC17FD0761F4808191810296840F951F4E
:10145000E90199838883828193819B838A83F0E069
:10146000E0E012968D919C9113970097B9F52D911C
:101470003C911197CD010296820F931F20918B0111
:1014800030918C012817390739F6309751F51092B1
:101490008E0110928D01B0938C01A0938B01BCCF73
:1014A000D383C28340815181840F951FC817D90708
:1014B00061F44E5F5F4F88819981480F591F5183B6
:1014C00040838A819B81938382832115310509F0B2
:1014D000B0CFF0938E01E0938D019ECFFD01DC0132
:1014E000C0CF13821282D7CFB0E0A0E0EAE7FAE0E3
:1014F0000C94EC088C01009751F4CB010E944F0929
:101500008C01C801CDB7DEB7E0E10C940809FC01FD
:10151000E60FF71F9C0122503109E217F30708F488
:101520009DC0D901CD91DC911197C617D70798F0CE
:10153000C530D10530F3CE0104978617970708F31D
:10154000C61BD70B2297C193D1936D937C93CF0188
:101550000E94EB09D6CF5B01AC1ABD0A4C018C0E80
:101560009D1EA0918D01B0918E01512C412CF12C2A
:10157000E12C109731F580918B0190918C018815A9
:10158000990509F05CC04616570608F058C08091CE
:10159000000190910101009741F48DB79EB74091F1
:1015A000040150910501841B950BE817F90708F019
:1015B00055C0F0938C01E0938B01F9017183608336
:1015C000A0CF8D919C91119712966C9012971396C3
:1015D0007C901397A815B90559F56C0142E0C40E2B
:1015E000D11CCA14DB0420F1AC014A195B09DA01F1
:1015F0001296159780F06282738251834083D901DD
:101600006D937C93E114F10471F0D7011396FC9370
:10161000EE93129776CF22968C0F9D1FF90191833E
:101620008083F301EFCFF0938E01E0938D0169CFBA
:101630004816590608F42C017D01D3019ACFCB013D
:101640000E944F097C01009749F0AE01B8010E9449
:10165000310BC8010E94EB09870153CF10E000E075
:1016600050CFFB01DC0102C001900D92415050406F
:10167000D8F70895FB01DC0101900D920020E1F7FD
:061680000895F894FFCF6D
:1016860000008F018000000000001C044B010302D3
:101696004A01524F44414E444F2E2E2E0046494E8B
:1016A600414C495A41444F00494E53495241204FFB
:0816B6002054454D504F3A004D
:00000001FF
